:100000000C941D0B0C944E0B0C944E0B0C944E0B3D
:100010000C944E0B0C944E0B0C944E0B0C944E0BFC
:100020000C944E0B0C944E0B0C944E0B0C944E0BEC
:100030000C944E0B0C944E0B0C944E0B0C944E0BDC
:100040000C944E0B0C944E0B0C944E0B0C944E0BCC
:100050000C944E0B0C944E0B0C944E0B0C94E931FB
:100060000C944E0B0C944E0B0C944E0B0C944E0BAC
:100070000C944E0B0C944E0B0C944E0B0C944E0B9C
:100080000C944E0B0C944E0B0C944E0B0C944E0B8C
:100090000C944E0B0C944E0B0C944E0B0C944E0B7C
:1000A0000C944E0B0C944E0B0C944E0B0C944E0B6C
:1000B0000C944E0B0C944E0B0C944E0B0C944E0B5C
:1000C0000C944E0B0C944E0B0C944E0B0C944E0B4C
:1000D0000C944E0B0C944E0B0C944E0B0C944E0B3C
:1000E0000C944E0B3F2D422D312D352D3B2D792D6E
:1000F000462D4A2D502D542D582D5E2D622D662DE6
:10010000792D6C2D702D742D2D2053657420526522
:10011000706561742020200000F71CBB0B002D20AF
:10012000536574204572726F72202020200000F702
:100130001CBA0B00000000000000000000000000DE
:100140000000000000000000000047656E65726955
:100150006320323731362020200000802F4B2F00C3
:1001600047656E6572696320323733322020200084
:1001700000802F3D2F00537061636520496E76200B
:1001800028535634290000832FF22E00000000006F
:10019000000000000000000000000000000000005F
:1001A0000000000000000000001000001009000026
:1001B000000020344B000000001000000010000080
:1001C00010090000000020344B0000000020000057
:1001D0000010000010090000000020344B00000057
:1001E0000030000000100000100900000000203462
:1001F0004B0000000040000000100000100900004B
:10020000000020344B0000000050000000100000EF
:1002100010090000000020344B00000000600000C6
:100220000010000010090000000020344B00000006
:1002300000700000001000001009000000002034D1
:100240004B000000008000000010000010090000BA
:10025000000020344B00000000900000001000005F
:1002600010090000000020344B00000000A0000036
:100270000010000010090000000020344B000000B6
:1002800000B0000000100000100900000000203441
:100290004B00000000C0000000100000100900002A
:1002A000000020344B00000000D0000000100000CF
:1002B00010090000000020344B00000000E00000A6
:1002C0000010000010090000000020344B00000066
:1002D00000F00000001000001009000000002034B1
:1002E0004B000000000000000000000000000000C3
:1002F00000000000000000000000000000080000F6
:1003000028090000000020324B0000000008000017
:100310000008000028090000000020324B00000007
:100320000010000000080000280900000000203232
:100330004B00000000180000000800002809000021
:10034000000020324B0000000020000000080000E8
:1003500028090000000020324B00000000280000A7
:100360000008000028090000000020324B000000B7
:1003700000300000000800002809000000002032C2
:100380004B000000003800000008000028090000B1
:10039000000020324B000000004000000008000078
:1003A00028090000000020324B0000000048000037
:1003B0000008000028090000000020324B00000067
:1003C0000050000000080000280900000000203252
:1003D0004B00000000580000000800002809000041
:1003E000000020324B000000006000000008000008
:1003F00028090000000020324B00000000680000C7
:100400000008000028090000000020324B00000016
:1004100000700000000800002809000000002032E1
:100420004B000000007800000008000028090000D0
:10043000000020324B000000008000000008000097
:1004400028090000000020324B0000000088000056
:100450000008000028090000000020324B000000C6
:100460000090000000080000280900000000203271
:100470004B00000000980000000800002809000060
:10048000000020324B00000000A000000008000027
:1004900028090000000020324B00000000A80000E6
:1004A0000008000028090000000020324B00000076
:1004B00000B0000000080000280900000000203201
:1004C0004B00000000B800000008000028090000F0
:1004D000000020324B00000000C0000000080000B7
:1004E00028090000000020324B00000000C8000076
:1004F0000008000028090000000020324B00000026
:1005000000D0000000080000280900000000203290
:100510004B00000000D8000000080000280900007F
:10052000000020324B00000000E000000008000046
:1005300028090000000020324B00000000E8000005
:100540000008000028090000000020324B000000D5
:1005500000F0000000080000280900000000203220
:100560004B00000000F8000000080000280900000F
:10057000000020324B0000000000000000000000DE
:10058000000000000000000000000000000000006B
:10059000000000000000000000000000000000005B
:1005A000000000000000000000000000000000004B
:1005B000000000000000000000000000000000003B
:1005C000000000000000000000000000000000002B
:1005D00000000000000000000000000000FF030019
:1005E0000001FF0020314B0020202052414D00002F
:1005F0000000001000FF03100001FF0076314B00E7
:10060000562E2052414D00000000040000FF07005C
:100610000001FF0020314B0020202052414D0000FE
:100620000000041000FF07100001FF0076314B00AE
:10063000562E2052414D00000000080000FF0B0024
:100640000001FF0020314B0020202052414D0000CE
:100650000000081000FF0B100001FF0076314B0076
:10066000562E2052414D000000000C0000FF0F00EC
:100670000001FF0020314B0020202052414D00009E
:1006800000000C1000FF0F100001FF0076314B003E
:10069000562E2052414D00000000100000FF1300B4
:1006A0000001FF0020314B0020202052414D00006E
:1006B0000000101000FF13100001FF0076314B0006
:1006C000562E2052414D00000000140000FF17007C
:1006D0000001FF0020314B0020202052414D00003E
:1006E0000000141000FF17100001FF0076314B00CE
:1006F000562E2052414D00000000180000FF1B0044
:100700000001FF0020314B0020202052414D00000D
:100710000000181000FF1B100001FF0076314B0095
:10072000562E2052414D000000001C0000FF1F000B
:100730000001FF0020314B0020202052414D0000DD
:1007400000001C1000FF1F100001FF0076314B005D
:10075000562E2052414D00000000200000FF2300D3
:100760000001FF0020314B0020202052414D0000AD
:100770000000201000FF23100001FF0076314B0025
:10078000562E2052414D00000000240000FF27009B
:100790000001FF0020314B0020202052414D00007D
:1007A0000000241000FF27100001FF0076314B00ED
:1007B000562E2052414D00000000280000FF2B0063
:1007C0000001FF0020314B0020202052414D00004D
:1007D0000000281000FF2B100001FF0076314B00B5
:1007E000562E2052414D000000002C0000FF2F002B
:1007F0000001FF0020314B0020202052414D00001D
:1008000000002C1000FF2F100001FF0076314B007C
:10081000562E2052414D00000000300000FF3300F2
:100820000001FF0020314B0020202052414D0000EC
:100830000000301000FF33100001FF0076314B0044
:10084000562E2052414D00000000340000FF3700BA
:100850000001FF0020314B0020202052414D0000BC
:100860000000341000FF37100001FF0076314B000C
:10087000562E2052414D00000000380000FF3B0082
:100880000001FF0020314B0020202052414D00008C
:100890000000381000FF3B100001FF0076314B00D4
:1008A000562E2052414D000000003C0000FF3F004A
:1008B0000001FF0020314B0020202052414D00005C
:1008C00000003C1000FF3F100001FF0076314B009C
:1008D000562E2052414D00000000400000FF430012
:1008E0000001FF0020314B0020202052414D00002C
:1008F0000000401000FF43100001FF0076314B0064
:10090000562E2052414D00000000440000FF4700D9
:100910000001FF0020314B0020202052414D0000FB
:100920000000441000FF47100001FF0076314B002B
:10093000562E2052414D00000000480000FF4B00A1
:100940000001FF0020314B0020202052414D0000CB
:100950000000481000FF4B100001FF0076314B00F3
:10096000562E2052414D000000004C0000FF4F0069
:100970000001FF0020314B0020202052414D00009B
:1009800000004C1000FF4F100001FF0076314B00BB
:10099000562E2052414D00000000500000FF530031
:1009A0000001FF0020314B0020202052414D00006B
:1009B0000000501000FF53100001FF0076314B0083
:1009C000562E2052414D00000000540000FF5700F9
:1009D0000001FF0020314B0020202052414D00003B
:1009E0000000541000FF57100001FF0076314B004B
:1009F000562E2052414D00000000580000FF5B00C1
:100A00000001FF0020314B0020202052414D00000A
:100A10000000581000FF5B100001FF0076314B0012
:100A2000562E2052414D000000005C0000FF5F0088
:100A30000001FF0020314B0020202052414D0000DA
:100A400000005C1000FF5F100001FF0076314B00DA
:100A5000562E2052414D00000000600000FF630050
:100A60000001FF0020314B0020202052414D0000AA
:100A70000000601000FF63100001FF0076314B00A2
:100A8000562E2052414D00000000640000FF670018
:100A90000001FF0020314B0020202052414D00007A
:100AA0000000641000FF67100001FF0076314B006A
:100AB000562E2052414D00000000680000FF6B00E0
:100AC0000001FF0020314B0020202052414D00004A
:100AD0000000681000FF6B100001FF0076314B0032
:100AE000562E2052414D000000006C0000FF6F00A8
:100AF0000001FF0020314B0020202052414D00001A
:100B000000006C1000FF6F100001FF0076314B00F9
:100B1000562E2052414D00000000700000FF73006F
:100B20000001FF0020314B0020202052414D0000E9
:100B30000000701000FF73100001FF0076314B00C1
:100B4000562E2052414D00000000740000FF770037
:100B50000001FF0020314B0020202052414D0000B9
:100B60000000741000FF77100001FF0076314B0089
:100B7000562E2052414D00000000780000FF7B00FF
:100B80000001FF0020314B0020202052414D000089
:100B90000000781000FF7B100001FF0076314B0051
:100BA000562E2052414D000000007C0000FF7F00C7
:100BB0000001FF0020314B0020202052414D000059
:100BC00000007C1000FF7F100001FF0076314B0019
:100BD000562E2052414D00000000800000FF83008F
:100BE0000001FF0020314B0020202052414D000029
:100BF0000000801000FF83100001FF0076314B00E1
:100C0000562E2052414D00000000840000FF870056
:100C10000001FF0020314B0020202052414D0000F8
:100C20000000841000FF87100001FF0076314B00A8
:100C3000562E2052414D00000000880000FF8B001E
:100C40000001FF0020314B0020202052414D0000C8
:100C50000000881000FF8B100001FF0076314B0070
:100C6000562E2052414D000000008C0000FF8F00E6
:100C70000001FF0020314B0020202052414D000098
:100C800000008C1000FF8F100001FF0076314B0038
:100C9000562E2052414D00000000900000FF9300AE
:100CA0000001FF0020314B0020202052414D000068
:100CB0000000901000FF93100001FF0076314B0000
:100CC000562E2052414D00000000940000FF970076
:100CD0000001FF0020314B0020202052414D000038
:100CE0000000941000FF97100001FF0076314B00C8
:100CF000562E2052414D00000000980000FF9B003E
:100D00000001FF0020314B0020202052414D000007
:100D10000000981000FF9B100001FF0076314B008F
:100D2000562E2052414D000000009C0000FF9F0005
:100D30000001FF0020314B0020202052414D0000D7
:100D400000009C1000FF9F100001FF0076314B0057
:100D5000562E2052414D00000000A00000FFA300CD
:100D60000001FF0020314B0020202052414D0000A7
:100D70000000A01000FFA3100001FF0076314B001F
:100D8000562E2052414D00000000A40000FFA70095
:100D90000001FF0020314B0020202052414D000077
:100DA0000000A41000FFA7100001FF0076314B00E7
:100DB000562E2052414D00000000A80000FFAB005D
:100DC0000001FF0020314B0020202052414D000047
:100DD0000000A81000FFAB100001FF0076314B00AF
:100DE000562E2052414D00000000AC0000FFAF0025
:100DF0000001FF0020314B0020202052414D000017
:100E00000000AC1000FFAF100001FF0076314B0076
:100E1000562E2052414D00000000B00000FFB300EC
:100E20000001FF0020314B0020202052414D0000E6
:100E30000000B01000FFB3100001FF0076314B003E
:100E4000562E2052414D00000000B40000FFB700B4
:100E50000001FF0020314B0020202052414D0000B6
:100E60000000B41000FFB7100001FF0076314B0006
:100E7000562E2052414D00000000B80000FFBB007C
:100E80000001FF0020314B0020202052414D000086
:100E90000000B81000FFBB100001FF0076314B00CE
:100EA000562E2052414D00000000BC0000FFBF0044
:100EB0000001FF0020314B0020202052414D000056
:100EC0000000BC1000FFBF100001FF0076314B0096
:100ED000562E2052414D00000000C00000FFC3000C
:100EE0000001FF0020314B0020202052414D000026
:100EF0000000C01000FFC3100001FF0076314B005E
:100F0000562E2052414D00000000C40000FFC700D3
:100F10000001FF0020314B0020202052414D0000F5
:100F20000000C41000FFC7100001FF0076314B0025
:100F3000562E2052414D00000000C80000FFCB009B
:100F40000001FF0020314B0020202052414D0000C5
:100F50000000C81000FFCB100001FF0076314B00ED
:100F6000562E2052414D00000000CC0000FFCF0063
:100F70000001FF0020314B0020202052414D000095
:100F80000000CC1000FFCF100001FF0076314B00B5
:100F9000562E2052414D00000000D00000FFD3002B
:100FA0000001FF0020314B0020202052414D000065
:100FB0000000D01000FFD3100001FF0076314B007D
:100FC000562E2052414D00000000D40000FFD700F3
:100FD0000001FF0020314B0020202052414D000035
:100FE0000000D41000FFD7100001FF0076314B0045
:100FF000562E2052414D00000000D80000FFDB00BB
:101000000001FF0020314B0020202052414D000004
:101010000000D81000FFDB100001FF0076314B000C
:10102000562E2052414D00000000DC0000FFDF0082
:101030000001FF0020314B0020202052414D0000D4
:101040000000DC1000FFDF100001FF0076314B00D4
:10105000562E2052414D00000000E00000FFE3004A
:101060000001FF0020314B0020202052414D0000A4
:101070000000E01000FFE3100001FF0076314B009C
:10108000562E2052414D00000000E40000FFE70012
:101090000001FF0020314B0020202052414D000074
:1010A0000000E41000FFE7100001FF0076314B0064
:1010B000562E2052414D00000000E80000FFEB00DA
:1010C0000001FF0020314B0020202052414D000044
:1010D0000000E81000FFEB100001FF0076314B002C
:1010E000562E2052414D00000000EC0000FFEF00A2
:1010F0000001FF0020314B0020202052414D000014
:101100000000EC1000FFEF100001FF0076314B00F3
:10111000562E2052414D00000000F00000FFF30069
:101120000001FF0020314B0020202052414D0000E3
:101130000000F01000FFF3100001FF0076314B00BB
:10114000562E2052414D00000000F40000FFF70031
:101150000001FF0020314B0020202052414D0000B3
:101160000000F41000FFF7100001FF0076314B0083
:10117000562E2052414D00000000F80000FFFB00F9
:101180000001FF0020314B0020202052414D000083
:101190000000F81000FFFB100001FF0076314B004B
:1011A000562E2052414D00000000FC0000FFFF00C1
:1011B0000001FF0020314B0020202052414D000053
:1011C0000000FC1000FFFF100001FF0076314B0013
:1011D000562E2052414D000000000000000000008B
:1011E00000000000000000000000000000000000FF
:1011F000000000000000000000000000000000C02F
:101200000500FFFF000020202000536E642D46469D
:1012100000000000C00500555500002020200053AC
:101220006E642D353500000000C00500AAAA00003C
:1012300020202000536E642D41410000000000007A
:10124000000000000000000000000000000000009E
:10125000000002C40500FFFF202020004453573047
:10126000202000000004C40500FFFF2020200044CF
:10127000535731202000000000CC0500FFFF202044
:101280002000494E3020202000000002CC0500FF45
:10129000FF20202000494E3120202000000004CCF7
:1012A0000500FFFF20202000494E322020200000B2
:1012B000000000000000000000000000000000002E
:1012C000000000000000000000000000000000001E
:1012D000000000000000000000000000000004000A
:1012E000FFFF040001FFFF202020004368617220FF
:1012F0002000000000000500FFFF050001FFFF20A7
:101300002020005363726F6C6C0000000020050009
:10131000FF2F050001FFFF202020005669642D31BA
:101320002000000000300500FF3F050001FFFF2006
:101330002020005669642D32200000000040050086
:10134000FF4F050001FFFF20202000436C722D316C
:101350002000000000500500FF5F050001FFFF2096
:10136000202000436C722D32200000000060050038
:10137000FF6F050001FFFF20202000537072697489
:101380006500000000000600FF7F060001FFFF204F
:1013900020200050726F6720200000000000000035
:1013A000000000000000000000000000000000003D
:1013B0000000000000000400FFFF040001FFFF2008
:1013C000202000436861722020000000000005001A
:1013D000FFFF050001FFFF202020005363726F6CA8
:1013E0006C00000000200500FF2F050001FFFF201A
:1013F0002020005669642D312000000000300500D7
:10140000FF3F050001FFFF202020005669642D32B8
:101410002000000000400500FF4F050001FFFF20F5
:10142000202000436C722D31200000000050050088
:10143000FF5F050001FFFF20202000436C722D326A
:101440002000000000600500FF6F050001FFFF2085
:1014500020200053707269746500000000000600CF
:10146000FF7F060001FFFF2020200050726F6720E1
:10147000200000000000000000000000000000004C
:10148000000000000000000000000000000000005C
:1014900000040000A209B68CBB867233360000003F
:1014A00000040000000400008E091A6DBEFE7233B5
:1014B0003500000000080000000400007A090272F4
:1014C0008EA07233340000000014000000040000FD
:1014D000660926B89312723331000000001800002C
:1014E000000400005209341601A9723432000000D1
:1014F000001C0000000400003E09700373587234A1
:1015000031000000000000000000000000000000AA
:1015100000000000000000002100240027002A0035
:101520002D003000330001010000040107010A0111
:1015300000002200250028002B002E00310034007E
:1015400002010000050108010B010000200023003A
:10155000260029002C002F003200000100000301AA
:101560000601090105050505070508080808020226
:1015700002020A0A0808040404040101010101012D
:1015800001010303030303030303040707070C0C10
:101590000C0C0C0C0C0C02020202060606060606D7
:1015A00006060B0B0B0B0B0B0B0B0102102020087C
:1015B00008102040102040800201020108040201AE
:1015C000010204081020408080402010080402011D
:1015D0008004020180402010080402010804020176
:1015E00001020408102040800102040810204080FD
:1015F00000000A0B02090C0D0E080703040100008D
:1016000000000000000000000000000000000000DA
:101610000000000000000000000000001211100097
:1016200000000000000000000000000000000000BA
:101630000000000000007834233811241FBECFEFD3
:10164000D1E2DEBFCDBF00E00CBF1BE0A0E0B2E006
:10165000E8EAF7E700E00BBF02C007900D92A63B57
:10166000B107D9F72CE0A6EBBBE001C01D92AB306F
:10167000B207E1F71BE0CCE1DBE000E006C0219718
:101680000109802FFE010E945938CB31D10780E03B
:101690000807A9F70E94CA340C94C33B0C940000BD
:1016A000CF93DF93EC0188899989DC01ED91FC915E
:1016B0000190F081E02D1995FC0120813181232BCF
:1016C00059F488899989DC01ED91FC910280F381BC
:1016D000E02DDF91CF911994DF91CF910895DC0136
:1016E00050968D919C915197DC01ED91FC91019068
:1016F000F081E02D19942F923F924F925F926F925A
:101700007F928F929F92AF92BF92CF92DF92EF9291
:10171000FF920F931F93CF93DF93CDB7DEB76697FA
:101720000FB6F894DEBF0FBECDBF6C01DC01613097
:10173000710509F012C156962D913C91579744E1DD
:10174000429FC001439F900D112412962D903C9012
:101750001397280E391E5096ED90FC9051978E01EC
:101760000F5F1F4F88E0F80111928A95E9F76BEC43
:101770007AE083EC9BE00E94861CD101ED91FC9104
:10178000309719F0C601199502C089EC9BE0FC0165
:1017900020813181232B09F0E6C0D701ED91FC9126
:1017A000D10112964D915D916D917C9115970480B8
:1017B000F581E02DC7011995882ED701ED91FC9197
:1017C000D10112964D915D916D917C911597068096
:1017D000F781E02DC7011995912CA12CB12C6E0138
:1017E000813009F054C0B9E0CB0ED11C412C512CF2
:1017F00032011E8B0D8BD701ED91FC91D101129618
:101800004D915D916D917C911597440D551D661D0F
:10181000771D0084F185E02D9801C7011995FC0121
:1018200020813181232B09F09EC00E5F1F4FAD89AF
:10183000BE896C9140E1C601603128F40E94862F78
:101840006FEC7AE004C00E94862F63E67BE0CE0155
:101850000F960E94B32FB601CE010F960E94561C20
:10186000BC0183EC9BE00E943E1CCE010F960E94BF
:101870009B1CC6010E949B1C480C591C6A1C7B1CAB
:101880000C151D0509F0B5CF81EC9BE06CC0B5E0EF
:10189000CB0ED11C412C512C3201D701ED91FC9182
:1018A000D10112964D915D916D917C911597440DEA
:1018B000551D661D771D0084F185E02D9801C70137
:1018C0001995FC0120813181232B09F04CC0D801EE
:1018D0006D917D918D0140E1CE01099660317105D8
:1018E00028F40E94CC1C62ED7AE016C06F3F7105AF
:1018F00009F028F40E94CC1C67ED7AE00DC0611558
:10190000B0E17B0728F40E94CC1C6FEC7AE004C0A5
:101910000E94CC1C63E67BE0CE010F960E94B32FA1
:10192000BE01675F7F4FCE010F960E94561CBC011F
:1019300083EC9BE00E943E1CCE010F960E949B1CF4
:10194000CE0109960E949B1C480C591C6A1C7B1CEA
:101950000C151D0509F498CFA0CFED91FC9102A4C0
:10196000F3A5E02D199566960FB6F894DEBF0FBE6D
:10197000CDBFDF91CF911F910F91FF90EF90DF903E
:10198000CF90BF90AF909F908F907F906F905F901F
:101990004F903F902F900895CF92DF92EF92FF9259
:1019A0000F931F93CF93DF93CDB7DEB72E970FB66C
:1019B000F894DEBF0FBECDBF7C011E861D8610923F
:1019C000C20B1092C10B6BEC7AE083EC9BE00E949F
:1019D000861CC12CD12CD70150968D919C9151978A
:1019E000DC01ED91FC91D70152966D917C9153975A
:1019F0000484F585E02D08EB1BE020E030E041E0B9
:101A00001995FC0120813181232B09F0D7C0D70122
:101A100054968C9154978111AAC050968D919C91A7
:101A20005197DC01ED91FC910684F785E02DBE0114
:101A3000635F7F4F1995FC0120813181232B09F0D1
:101A4000BDC0D70155969C918D85981709F48FC01C
:101A500081E090E09093C20B8093C10B6BED7AE034
:101A600083EC9BE00E94861C6EED7AE0CE0101962D
:101A70000E94B32FBE016F5F7F4F83EC9BE00E94FB
:101A80003E1CCE0101960E949B1C40E1B601CE0196
:101A900007960E94CC1C62ED7AE0CE0101960E946E
:101AA000B32FBE01695F7F4FCE0101960E94561C85
:101AB000BC0183EC9BE00E943E1CCE0101960E947B
:101AC0009B1CCE0107960E949B1CF701658940E193
:101AD000CE010796603128F40E94862F6FEC7AE0E1
:101AE00004C00E94862F63E67BE0CE0101960E942F
:101AF000B32FBE01695F7F4FCE0101960E94561C35
:101B0000BC0183EC9BE00E943E1CCE0101960E942A
:101B10009B1CCE0107960E949B1C6D8540E1CE0167
:101B20000796603128F40E94862F6FEC7AE004C09B
:101B30000E94862F63E67BE0CE0101960E94B32FC0
:101B4000BE01695F7F4FCE0101960E94561CBC0109
:101B500083EC9BE00E943E1CCE0101960E949B1CE0
:101B6000CE0107960E949B1C81EC9BE027C0D70109
:101B700050968D919C915197DC01ED91FC91D7018C
:101B800052966D917C9153970484F585E02D00E089
:101B900010E0980141E01995FC0180819181892B29
:101BA00059F0FFEFCF1ADF0A84E0C816D10409F01C
:101BB00012CF89EC9BE002C088E092E02E960FB62F
:101BC000F894DEBF0FBECDBFDF91CF911F910F9173
:101BD000FF90EF90DF90CF9008950F931F93CF93D6
:101BE000DF93CDB7DEB766970FB6F894DEBF0FBEB2
:101BF000CDBFDC016130710509F0BDC012968D9139
:101C00009C91139756962D913C91579744E1429F92
:101C10008001439F100D1124080F191F50962D911C
:101C20003C9151973E872D87988B8F87BA8BA98BD4
:101C30001B8A1C8A1D8A1E8AAE014D5E5F4FB80149
:101C4000CE010D960E94F11AFC0120813181232BD7
:101C500009F097C01092C20B1092C10B6BEC7AE0A6
:101C600083EC9BE00E94861CB801605F7F4F83EC91
:101C70009BE00E94301C4B895C896D897E8920E144
:101C8000403151056105710538F4CE0107960E9477
:101C9000A01C62EE7AE054C04F3F5105610571050A
:101CA00009F038F4CE0107960E94A01C6BEE7AE092
:101CB00047C04115F0E15F076105710538F4CE01B9
:101CC00007960E94A01C63EF7AE03AC041155105C7
:101CD00081E06807710538F4CE0107960E94A01CC8
:101CE0006AEF7AE02DC041155105E0E16E077105FC
:101CF00038F4CE0107960E94A01C62ED7AE020C065
:101D0000411551056105F1E07F0738F4CE010796D2
:101D10000E94A01C67ED7AE013C0411551056105D2
:101D200080E1780738F4CE0107960E94A01C6FEC82
:101D30007AE006C0CE0107960E94A01C63E67BE015
:101D4000CE0101960E94B32FBE01695F7F4FCE0185
:101D500001960E94561CBC0183EC9BE00E943E1C35
:101D6000CE0101960E949B1CCE0107960E949B1CEF
:101D700081EC9BE006C0ED91FC9102A4F3A5E02D5F
:101D8000199566960FB6F894DEBF0FBECDBFDF91F2
:101D9000CF911F910F9108950F931F93CF93DF93CE
:101DA00000D000D0CDB7DEB7DC016130710551F550
:101DB00012968D919C91139756962D913C91579721
:101DC00044E1429F8001439F100D1124080F191F09
:101DD00050962D913C9151973A8329839C838B8314
:101DE000BE83AD83B801CE0101960E94601EFC0146
:101DF00020813181232B61F4B801CE0101960E942C
:101E00009F1D06C0ED91FC9102A4F3A5E02D19954C
:101E100026960FB6F894DEBF0FBECDBFDF91CF91EF
:101E20001F910F910895EF92FF920F931F93CF93FD
:101E3000DF9300D000D0CDB7DEB7FC012281338123
:101E4000408951895A8349833C832B839E838D83A8
:101E5000E12CF12C89EC9BE00B811C810E0D1F1DE8
:101E6000F8014681578160857185452B462B472BAC
:101E7000B9F0B801CE0101960E94601EFC012081DC
:101E80003181232B29F4B801CE0101960E949F1DB8
:101E9000F4E1EF0EF11CFC0120813181232BE1F2F2
:101EA00026960FB6F894DEBF0FBECDBFDF91CF915F
:101EB0001F910F91FF90EF900895CF92DF92EF92D4
:101EC000FF920F931F93CF93DF93CDB7DEB72A977F
:101ED0000FB6F894DEBF0FBECDBFFC01A681B7815F
:101EE00016964D915D916D917C911997452B462BDE
:101EF000472B61F180859185248135814089518905
:101F00005A8349833C832B83BE83AD8398878F8319
:101F1000FA87E98700E010E089EC9BE06D817E8123
:101F2000600F711FFB01C680D780E084F184CD284B
:101F3000CE28CF2869F0CE01019622D4085E1F4F2B
:101F4000FC0120813181232B49F302C080E192E022
:101F50002A960FB6F894DEBF0FBECDBFDF91CF91AA
:101F60001F910F91FF90EF90DF90CF900895CF9247
:101F7000DF92EF92FF920F931F93CF93DF93CDB732
:101F8000DEB72A970FB6F894DEBF0FBECDBFFC01B7
:101F9000A481B58116964D915D916D917C911997B3
:101FA000452B462B472B09F454C08085918526810B
:101FB0003781408951895A834983BC83AB833E83EF
:101FC0002D8398878F83FA87E98700E010E089ECFA
:101FD0009BE06B817C81600F711FFB01C680D78005
:101FE000E084F184CD28CE28CF2879F0FB0142810E
:101FF0005381416021E0CE0101961DD3085E1F4F41
:10200000FC0120813181232B21F3FC01008111810E
:102010000115110501F56B817C81600F711FFB01BA
:10202000C680D780E084F184CD28CE28CF2899F0CF
:10203000FB0142815381416021E0CE0101960E9463
:102040003C20085E1F4FFC0120813181232B19F3B6
:1020500002C080E192E02A960FB6F894DEBF0FBE70
:10206000CDBFDF91CF911F910F91FF90EF90DF9047
:10207000CF900895CF92DF92EF92FF920F931F932C
:10208000CF93DF93CDB7DEB72A970FB6F894DEBFB4
:102090000FBECDBFFC01A481B58116964D915D9117
:1020A0006D917C911997452B462B472B61F18085CB
:1020B000918526813781408951895A834983BC8320
:1020C000AB833E832D8398878F83FA87E98700E06F
:1020D00010E089EC9BE06B817C81600F711FFB013C
:1020E000C680D780E084F184CD28CE28CF2869F03F
:1020F000CE010196F3D7085E1F4FFC01208131818C
:10210000232B49F302C080E192E02A960FB6F8949F
:10211000DEBF0FBECDBFDF91CF911F910F91FF901A
:10212000EF90DF90CF900895CF93DF93EC0160E0C4
:102130008E810E94233161E08E810E94233160E014
:102140008E810E9423318BE891E00197F1F7DF91B6
:10215000CF9108952F923F924F925F926F927F920C
:102160008F929F92AF92BF92CF92DF92EF92FF92A7
:102170000F931F93CF93DF931F921F92CDB7DEB7BC
:102180001C013A014901250186E292E0F1019183A7
:10219000808382E090E0938B828B148A158A178A61
:1021A000168A118E108E138E128E158E148E178E27
:1021B000168E81E080A312A211A2CB01069620E028
:1021C00030E0FC01459154912F5F3F4F452B11F0BA
:1021D0004496F7CFFC01329645915491452BC1F7B7
:1021E00084E1829F5001839FB00C1124C501698353
:1021F0007A830E947B38F10193838283A5016981F0
:102200007A810E94F53A93012A5F3F4F80E090E087
:10221000F901459154910196452B19F0285E3F4FE5
:10222000F7CFF901329645915491452BB9F728E142
:10223000289F5001299FB00C1124C5010E947B38B2
:10224000F10195838483A501B3010E94F53A6814D6
:10225000790409F091C0F101848195819783868387
:10226000C801069620E030E0FC01459154912F5FB3
:102270003F4F452B11F04896F7CFFC013296459120
:102280005491452BC1F788E1829F5001839FB00C88
:102290001124C5010E947B38F10191878087A50137
:1022A000B8010E94F53A97012A5F3F4F80E090E025
:1022B000F901459154912D5E3F4F0196452BC1F791
:1022C00023E1289F8001299F100D1124C8010E943D
:1022D0007B38F10193878287A801B7010E94F53A04
:1022E00096012A5F3F4F80E090E0F90145915491BB
:1022F0002B5E3F4F0196452BC1F725E1289F8001BA
:10230000299F100D1124C8010E947B38F101958787
:102310008487A801B6010E94F53A920180E090E01E
:10232000F90145915491235F3F4F0196452BC1F729
:102330002DE0289F8001299F100D1124C8010E94C3
:102340007B38F10197878687A801B2010F900F9023
:10235000DF91CF911F910F91FF90EF90DF90CF9081
:10236000BF90AF909F908F907F906F905F904F90B5
:102370003F902F900C94F53AC401069620E030E08F
:10238000FC01459154912F5F3F4F452B11F048962A
:10239000F7CFFC01329645915491452BC1F788E166
:1023A000829F5001839FB00C1124C5010E947B388D
:1023B000F10197838683A501B4010E94F53A50CFBD
:1023C000CF92DF92EF92FF920F931F93CF93DF9301
:1023D0007C016C0187E0C80ED11CC0E0D0E0062F64
:1023E00010E0B8010C2E02C0759567950A94E2F7CB
:1023F0006170F60181916F010E9423312196C430F2
:10240000D10579F7C701DF91CF911F910F91FF900F
:10241000EF90DF90CF9088CECF92DF92EF92FF9235
:102420000F931F93CF93DF93EC01F62E642F8C81D3
:102430000E9423318D818F3F19F060E00E9423318B
:102440008F850F2D10E084FF24C06E0187E0C80E39
:10245000D11CE12CF12CB8010E2C02C075956795AA
:102460000A94E2F76170F60181916F010E942331B5
:10247000FFEFEF1AFF0A88E0E816F10461F7CE01DA
:10248000DF91CF911F910F91FF90EF90DF90CF9050
:102490004BCEB80184E0759567958A95E1F7CE013A
:1024A0008FDF6F2DCE01DF91CF911F910F91FF90A4
:1024B000EF90DF90CF9084CF41E0AEDF81E090E0FD
:1024C000089540E0A9CF61E0FCDF8BE39FE1019735
:1024D000F1F708957F928F929F92AF92BF92CF9221
:1024E000DF92EF92FF920F931F93CF93DF937C01C4
:1024F0008B01C42EDB01ED91FC91309741F0DC01A2
:1025000018968D919C9119971995EC0102C0C9EC10
:10251000DBE088819981892B09F042C0F701808135
:102520009181DC01ED91FC91D80112964D915D9164
:102530006D917C9115970480F581E02D1995782E89
:10254000F80182809380A480B580D12CF801868127
:102550009781A085B18588159905AA05BB0500F16D
:10256000D7018D919C91DC01ED91FC910284F38562
:10257000E02D9601B501A4011995EC01888199819E
:10258000892B71F4F8014285749EA0011124052E57
:10259000000C660B770B840E951EA61EB71ED6CFB9
:1025A000CE01DF91CF911F910F91FF90EF90DF90BF
:1025B000CF90BF90AF909F908F907F900895DC0157
:1025C0008D919C91DC01ED91FC9100A4F1A5E02D91
:1025D0001994DC018D919C91DC01ED91FC9102A09C
:1025E000F3A1E02D1994DC018D919C91DC01ED911A
:1025F000FC9100A0F1A1E02D1994DC018D919C913A
:10260000DC01ED91FC91068CF78DE02D1994DC0135
:102610008D919C91DC01ED91FC91048CF58DE02D68
:102620001994DC018D919C91DC01ED91FC91028C5F
:10263000F38DE02D19943F924F925F926F927F92AB
:102640008F929F92AF92BF92CF92DF92EF92FF92C2
:102650000F931F93CF93DF935C01EB017A01822EDE
:10266000E881F981309741F0DC0118968D919C91B9
:10267000199719958C0102C009EC1BE0F8018081C3
:102680009181892B09F069C0D5018D919C91DC0164
:10269000ED91FC914A815B816C817D810480F581A3
:1026A000E02D1995982EF50180819181DC01ED9145
:1026B000FC914A815B816C817D810680F781E02DF0
:1026C0001995382EB701FF0C880B990B0E941B310E
:1026D000CA80DB80EC80FD80412C512C3201639458
:1026E0008E819F81A885B9858C159D05AE05BF0596
:1026F000A0F10E94E93AA30192010E94663B9B016E
:10270000882011F020953095B2E09B1207C0E1E0DF
:102710003E1204C0C0FE02C0232F3327D5018D9185
:102720009C91DC01ED91FC910284F385E02DB701D1
:10273000A60119958C01FC0180819181892B69F496
:102740008A85989EC0011124092E000CAA0BBB0B90
:10275000C80ED91EEA1EFB1EC3CFC801DF91CF9160
:102760001F910F91FF90EF90DF90CF90BF90AF90AF
:102770009F908F907F906F905F904F903F900895C3
:102780002F923F924F925F926F927F928F929F9281
:10279000AF92BF92CF92DF92EF92FF920F931F936F
:1027A000CF93DF93CDB7DEB7AA970FB6F894DEBF0D
:1027B0000FBECDBF9E8B8D8B788B6F87DC018D918B
:1027C0009C91DC01ED91FC91DB0112964D915D91A4
:1027D0006D917C9115970480F581E02D19958E8F70
:1027E000ED89FE8980819181DC01ED91FC91AF85BD
:1027F000B88912964D915D916D917C9115970680E7
:10280000F781E02D19958B8FEF85F8898680978069
:10281000A084B1844280538064807580F284838573
:1028200094858F3F910539F08115FFEF9F0719F0CF
:10283000019609F036C440E06F8578898D899E89BC
:1028400049DE8C01DC018D919C91892B09F02CC40F
:10285000C501B40164197509860997092F2D30E067
:1028600040E050E00E94923B298B3A8B4B8B5C8B73
:10287000A3E0B0E00E94823BBE8DBF9D9001112479
:10288000032E000C440B550B0E94923B2F8F38A354
:1028900049A35AA372E056954795379527957A959F
:1028A000D1F72BA33CA34DA35EA3212C312C2101F6
:1028B000EF85F8893D96FD8FEC8FF801808191813D
:1028C000892B09F0F1C3AF85B8891A962C911A9714
:1028D0001B966D917C911C97CB01A0E0B0E0AC0100
:1028E000BD01420F511D611D711DEF85F889828167
:1028F0009381A481B581840F951FA61FB71FBC01CA
:10290000CD01620D731D841D951D0E941B31A8EC25
:10291000B0E0A20191010E94823B6FA378A789A732
:102920009AA7812C912C54012F8D38A149A15AA12D
:1029300082169306A406B50609F4C3C129893A890B
:102940008B899C8949895A896B897C89452B462BBF
:10295000472B49F00E94E93A29893A894B895C89D9
:102960000E94663B9B01EF85F889A285FE8DFA9F48
:10297000D0011124AC010E948C3BAF85B88912961E
:102980000D911D912D913C9115976B017C01C00E0D
:10299000D11EE21EF31EA7019601220D331D441D18
:1029A000551D2F8B388F498F5A8FCA01B90125E0E9
:1029B00030E040E050E00E94923B8F89988D880F74
:1029C000991F6F89788D860F971F282739271E86B4
:1029D0001D86722E6624622AC501B4012BA13CA17A
:1029E0004DA15EA10E94923B672B682B692B31F4AD
:1029F0006FA178A589A59AA50E94B131AD89BE893C
:102A00008D919C91DC01ED91FC9181FC27C00084AB
:102A1000F185E02D9E01235F3F4FB701A601199577
:102A20008C01FC0180819181892B09F04AC1AF851D
:102A3000B8891B962D913C911C97622273228D853B
:102A40009E85822393239E878D87009761F4ED896D
:102A5000FE8980819181DC01ED91FC910284F385F6
:102A6000E02D93011BC1FB8DF13009F080C0681689
:102A700009F406C121E030E03093C20B2093C10B72
:102A80006BED7AE083EC9BE041D76C8D7D8D83EC20
:102A90009BE0E6D6C60140E1B6018031910530F4F5
:102AA000CE01079679D762ED7AE019C08F3F910584
:102AB00009F030F4CE0107966FD767ED7AE00FC0CA
:102AC000C11430E1D30630F4CE01079665D76FEC20
:102AD0007AE005C0CE0107965FD763E67BE0CE01C2
:102AE00001960E94B32FBE01695F7F4FCE01019610
:102AF000DDD6BC0183EC9BE0C1D6CE0101961BD78D
:102B0000CE01079618D74FE0461548F040E1662DF4
:102B1000CE0107960E94862F6FEC7AE008C040E154
:102B2000662DCE0107960E94862F63E67BE0CE01DC
:102B300001960E94B32FBE01695F7F4FCE010196BF
:102B4000B5D6BC0183EC9BE099D6CE010196F3D6B5
:102B5000CE010796F0D66D8540E1CE010796603133
:102B600018F40E94862F6FC00E94862F70C05B8D64
:102B7000523009F09DC06816790609F481C061E001
:102B800070E07093C20B6093C10B6BED7AE083EC45
:102B90009BE0BCD66C8D7D8D83EC9BE061D640E1E3
:102BA00070E16716710438F4B301CE010796F4D6CC
:102BB00062ED7AE01BC0B3018FEF6816710409F073
:102BC00030F4CE010796E8D667ED7AE00FC06114C5
:102BD00090E1790630F4CE010796DED66FEC7AE00C
:102BE00005C0CE010796D8D663E67BE0CE010196FC
:102BF0000E94B32FBE01695F7F4FCE01019656D66A
:102C0000BC0183EC9BE03AD6CE01019694D6CE016E
:102C1000079691D66D857E8540E1CE01079660319D
:102C2000710520F4B9D662ED7AE013C06F3F7105EB
:102C300009F020F4B1D667ED7AE00BC06115A0E190
:102C40007A0720F4A9D66FEC7AE003C0A5D663E634
:102C50007BE0CE0101960E94B32FBE01695F7F4FDA
:102C6000CE01019623D6BC0183EC9BE007D6CE01B2
:102C7000019661D6CE0107965ED601EC1BE021C01D
:102C800082FE19C0ED89FE8980819181DC01ED9180
:102C9000FC910284F385E02D20E030E0B701A6012D
:102CA00019958C01FC0180819181892B21F009C04B
:102CB00000E112E006C0FFEF8F1A9F0AAF0ABF0AB9
:102CC00033CEACE2B1E0A20191010E94823B0E94AE
:102CD000B131AF85B8891A962C911A971B966D91D0
:102CE0007C911C97CB01A0E0B0E0AC01BD01420F8C
:102CF000511D611D711DEF85F88982819381A48129
:102D0000B581840F951FA61FB71FBC01CD01620DB1
:102D1000731D841D951D0E941B311F8A188E198EEC
:102D20001A8E4F89588D698D7A8D8F8D98A1A9A1A2
:102D3000BAA1481759076A077B0709F4A5C1298971
:102D40003A898B899C8949895A896B897C89452B69
:102D5000462B472B49F00E94E93A29893A894B8949
:102D60005C890E94663B9B01EF85F889A285FE8DF8
:102D7000FA9FD0011124AC010E948C3BAF85B88929
:102D800012960D911D912D913C9115974B015C016F
:102D9000800E911EA21EB31E1E861D86ED89FE8921
:102DA00080819181DC01ED91FC910084F185E02D21
:102DB0009E01235F3F4FB501A40119958C01FC01D1
:102DC00080819181892B09F05FC1AF85B8891B96FD
:102DD000ED90FC901C97CD84DE84CE20DF20DE8633
:102DE000CD86C114D10409F442C1C501B401620DFC
:102DF000731D841D951D8B01000F111F060F171FDA
:102E000025E030E040E050E00E94923B202731274F
:102E1000922F8827822BE822F922BB8DB13009F04E
:102E20007CC01E2DEC1409F409C1E1E0F0E0F09340
:102E3000C20BE093C10B6BED7AE083EC9BE066D5AF
:102E40006C8D7D8D83EC9BE00BD5C40140E1B4011A
:102E50008031910530F4CE0107969ED562ED7AE07F
:102E600019C08F3F910509F030F4CE01079694D533
:102E700067ED7AE00FC08114F0E19F0630F4CE01D7
:102E800007968AD56FEC7AE005C0CE01079684D507
:102E900063E67BE0CE0101960E94B32FBE01695F1D
:102EA0007F4FCE01019602D5BC0183EC9BE0E6D4B6
:102EB000CE01019640D5CE0107963DD540E1612F68
:102EC000CE010796103128F40E94862F6FEC7AE02D
:102ED00004C00E94862F63E67BE0CE0101960E942B
:102EE000B32FBE01695F7F4FCE010196DFD4BC01D5
:102EF00083EC9BE0C3D4CE0101961DD5CE0107968D
:102F00001AD56D8540E1CE010796603118F40E9414
:102F1000862F75C00E94862F78C02B8D223009F035
:102F2000A3C0EC14FD0409F489C041E050E05093C3
:102F3000C20B4093C10B6BED7AE083EC9BE0E6D4CF
:102F40006C8D7D8D83EC9BE08BD440E150E1E516E8
:102F5000F10438F4B701CE0107961ED562ED7AE090
:102F60001DC06FEFE616F10409F038F4B701CE0189
:102F7000079612D567ED7AE011C0E11470E1F7060B
:102F800038F4B701CE01079607D56FEC7AE006C09A
:102F9000B701CE01079600D563E67BE0CE0101962E
:102FA0000E94B32FBE01695F7F4FCE0101967ED490
:102FB000BC0183EC9BE062D4CE010196BCD4CE016F
:102FC0000796B9D46D857E8540E16031710530F496
:102FD000CE010796E1D462ED7AE019C06F3F71052A
:102FE00009F030F4CE010796D7D467ED7AE00FC030
:102FF000611580E1780730F4CE010796CDD46FECEF
:103000007AE005C0CE010796C7D463E67BE0CE0127
:1030100001960E94B32FBE01695F7F4FCE010196DA
:1030200045D4BC0183EC9BE029D4CE01019683D426
:10303000CE01079680D401EC1BE026C0AD89BE8985
:103040008D919C91DC01ED91FC910284F385E02D42
:1030500020E030E0B501A40119958C01FC018081CC
:103060009181892B21F010C000E112E00DC02F8961
:10307000388D498D5A8D2F5F3F4F4F4F5F4F2F8BAC
:10308000388F498F5A8F4DCE9FEF291A390A490A36
:10309000590AA8E02A1631044104510409F00DCC64
:1030A00003C080E192E001C0C801AA960FB6F8946F
:1030B000DEBF0FBECDBFDF91CF911F910F91FF906B
:1030C000EF90DF90CF90BF90AF909F908F907F90C8
:1030D0006F905F904F903F902F9008958F929F92A6
:1030E000AF92BF92CF92DF92EF92FF920F931F9316
:1030F000CF93DF931F92CDB7DEB76C014B0128E56C
:10310000E22E22E0F22EE9ECFBE080E6E81682E017
:10311000F80609F444C0F701019111912191319110
:103120007F0130E092E0A92EB12CE9ECFBE0808138
:103130009181892B89F4F40142815381400F511F01
:10314000232F2170B401C601398375DAFC01808117
:1031500091813981892BF1F480819181892B89F4C6
:10316000F40142815381400F511F232F2170B4017C
:10317000C601398381D7FC01808191813981892BF6
:1031800049F43F5F3170AA94AB2821F0AA24A3949C
:10319000B12CCDCF80819181892B09F4B6CFCF019D
:1031A0000F90DF91CF911F910F91FF90EF90DF90E3
:1031B000CF90BF90AF909F908F9008959F92AF92C5
:1031C000BF92CF92DF92EF92FF920F931F93CF9314
:1031D000DF935C018B01DB01ED91FC91309741F0B5
:1031E000DC0118968D919C9119971995EC0102C0FC
:1031F000C9ECDBE088819981892B09F042C0F50197
:1032000080819181DC01ED91FC91D80112964D9164
:103210005D916D917C9115970480F581E02D199554
:10322000982EF801C280D380E480F580F801868171
:103230009781A085B1858C159D05AE05BF0508F168
:10324000D5018D919C91DC01ED91FC912C2D30E00C
:103250000284F385E02DB701A6011995EC01888160
:103260009981892B71F4F8014285949EA001112463
:10327000052E000C660B770BC40ED51EE61EF71E3E
:10328000D5CFCE01DF91CF911F910F91FF90EF909D
:10329000DF90CF90BF90AF909F900895FF920F93D3
:1032A0001F93CF93DF938C01F62EC0E0D0E0E9ECC2
:1032B000FBE0D80112968D919C911397DC01AC0F25
:1032C000BD1F16964D915D916D917C911997452B7F
:1032D000462B472B51F04F2DBD01C801FBD8FC01F7
:1032E000689680819181892B21F3C081D1812097BB
:1032F000E1F4D80116968D919C911797DC01AC0FE3
:10330000BD1F16964D915D916D917C911997452B3E
:10331000462B472B51F04F2DBD01C801DBD8FC01D6
:10332000689680819181892B21F3CF01DF91CF9124
:103330001F910F91FF9008950F931F93CF93DF93E9
:103340004115510529F1DC01CB0180959095A0959F
:10335000B095EA01E881F0E0E827F927FF27EE0FB2
:10336000FF1FEE0FFF1FEC59FD4F008111812281DD
:103370003381892F9A2FAB2FBB2780279127A22734
:10338000B327BC01CD01609570958095909503C0E1
:1033900060E070E0CB01DF91CF911F910F91089514
:1033A000FC01448155816081718188EE9BE00C9421
:1033B000F92C009769F0FC0101900020E9F73197A2
:1033C000AF01481B590BBC0188EE9BE00C94F92C13
:1033D00080E090E00895843008F083E09091FB0B4A
:1033E000891710F08FEF890FE82FF0E0E851F44FC4
:1033F0006489606888EE9BE064C8EF92FF920F9347
:103400001F93CF93DF93EC01623018F08F858860B3
:103410008F876B8B1C8A80E48D8B80E18E8B80E59F
:103420008F8B61E08C810E9452318D818F3F19F02A
:1034300061E00E94523161E08E810E9452317E0132
:1034400087E0E80EF11C00E010E08F8584FD03C0EA
:1034500084E090E002C088E090E0081719074CF47F
:1034600061E0F70181917F010E9452310F5F1F4F90
:10347000ECCF8BE39DE00197F1F760E08C810E9437
:10348000233160E08E810E9423318D818F3F19F0BE
:1034900060E00E9423316F8564FD1DC063E0CE01B2
:1034A0000E94E0110BE416E4C8010197F1F763E014
:1034B000CE010E94E011C8010197F1F763E0CE014F
:1034C0000E94E01183E592E00197F1F762E0CE01FE
:1034D0000E94E01116C06062CE010E9461128BE46E
:1034E00096E40197F1F76F856062CE010E94611248
:1034F00083E592E00197F1F76F856062CE010E944B
:1035000061126F856062CE010E94611284E0888B37
:103510006CE0CE010E946112CE010E94631282E033
:10352000898B66E0CE01DF91CF911F910F91FF90C3
:10353000EF900C9461120E948C3A0F931F93CF93DB
:10354000DF93EC0188819981009729F02A813B81E2
:103550002617370788F48B016F5F7F4F0E94A839C9
:10356000009761F0998388831B830A832C813D81B6
:10357000232B11F4FC01108281E001C080E0DF9177
:10358000CF911F910F910895EF92FF920F931F9388
:10359000CF93DF93FC01248135816115710511F40E
:1035A00080E018C041155105A1F07B01EC018A01B2
:1035B000020F131FB801C1DF882391F328813981DD
:1035C0008C819D81B701820F931F0E94993A1D83C0
:1035D0000C8381E0DF91CF911F910F91FF90EF90CD
:1035E00008952F923F924F925F926F927F928F92A7
:1035F0009F92AF92BF92CF92DF92EF92FF920F9382
:103600001F93CF93DF93CDB7DEB729970FB6F8940A
:10361000DEBF0FBECDBF9D838C831B0158874F83B8
:10362000DB01ED91FC91309741F0DC0114968D9116
:103630009C91159719958C0102C009EC1BE0F801CB
:1036400080819181892B09F098C0AC81BD818D91D9
:103650009C91DC01ED91FC91D10112964D915D910F
:103660006D917C9115970480F581E02D1995482E78
:10367000EC81FD8180819181DC01ED91FC91D10192
:1036800012964D915D916D917C9115970680F78111
:10369000E02D19958E831A8219821B82F101828096
:1036A0009380A480B580C12CD12C7601512C612C43
:1036B000712CD10116966D917D918D919C911997E8
:1036C000A30192010E943738F101228133814481A4
:1036D0005581DC01CB01820F931FA41FB51F8816F3
:1036E0009906AA06BB0608F03DC0AC81BD818D914C
:1036F0009C91DC01ED91FC910084F185E02D9E010F
:103700002F5F3F4FB501A40119958C01FC01808109
:103710009181892B39F5FE81F13041F489818B83C8
:10372000AE014D5F5F4FC701B60112C08E8182307E
:10373000B9F489812A818B83AE014D5F5F4FC70148
:10374000B6012987F9DD29852B83AE014D5F5F4FD7
:10375000F3DD6B017C01840C951CA61CB71CA9CF62
:1037600000E112E0D8018D919C91892B31F4EF8119
:10377000F885C082D182E282F382C80129960FB611
:10378000F894DEBF0FBECDBFDF91CF911F910F9197
:10379000FF90EF90DF90CF90BF90AF909F908F9071
:1037A0007F906F905F904F903F902F900895EF9291
:1037B000FF920F931F93CF93DF93CDB7DEB7289778
:1037C0000FB6F894DEBF0FBECDBF7C01CB014AE03F
:1037D0008E010F5F1F4FB8010E94FE3AF801019061
:1037E0000020E9F73197AF01401B510BB801C70129
:1037F000CBDE28960FB6F894DEBF0FBECDBFDF91AB
:10380000CF911F910F91FF90EF900895EF92FF924B
:103810000F931F93CF93DF9300D01F92CDB7DEB7E6
:103820007C01862F4AE08E010F5F1F4FB80190E0A8
:103830000E94FE3AF80101900020E9F73197AF01AC
:10384000401B510BB801C7019FDE0F900F900F90E6
:103850000F90DF91CF911F910F91FF90EF900895FE
:103860006115710549F0FB0101900020E9F73197DE
:10387000AF01461B570B88CE80E00895FB014481C1
:1038800055816081718180CECF93DF93EC01888177
:103890009981009711F00E941039198218821D82B7
:1038A0001C821B821A82DF91CF910895CF93DF9300
:1038B000EC01FB01448155816081718165DE8111DC
:1038C00002C0CE01E1DFCE01DF91CF910895EF92EA
:1038D000FF920F931F93CF93DF93EC017B018A013B
:1038E000BA012BDE811103C0CE01CEDF07C01D83DC
:1038F0000C83B701888199810E94993ACE01DF91AA
:10390000CF911F910F91FF90EF900895CF93DF9388
:10391000EC016115710551F0FB0101900020E9F700
:103920003197AF01461B570BD2DF01C0ADDFCE018F
:10393000DF91CF910895FC01808191810C94103921
:103940000F931F93CF93DF93CDB7DEB7A1970FB639
:10395000F894DEBF0FBECDBF8C01CB01BA01F801D8
:1039600011821082138212821582148230E0AE011D
:103970004F5F5F4F0E94083BBE016F5F7F4FC801E2
:10398000C5DFA1960FB6F894DEBF0FBECDBFDF91A5
:10399000CF911F910F9108950F931F93CF93DF93B2
:1039A000CDB7DEB761970FB6F894DEBF0FBECDBFBF
:1039B0008C01CB01F80111821082138212821582D0
:1039C000148250E0BE016F5F7F4F0E94333BBE0107
:1039D0006F5F7F4FC8019ADF61960FB6F894DEBF24
:1039E0000FBECDBFDF91CF911F910F910895CF935F
:1039F000DF93CDB7DEB7A4970FB6F894DEBF0FBE46
:103A0000CDBF2BE08B3B920709F076C08091BB0BBA
:103A10009091BC0B009719F485E090E004C00597E5
:103A200039F484E190E09093BC0B8093BB0B04C00D
:103A30001092BC0B1092BB0B65E67BE0CE014F965B
:103A40000E94B32F8091BB0B9091BC0B1A8E198EE4
:103A50001C8E1B8E1E8E1D8E4AE0BE016F5F7F4F37
:103A60000E94FE3ABE016F5F7F4FCE0149964EDF46
:103A700067E67BE0CE0101960E94B32F1C8A1B8A69
:103A80001E8A1D8A188E1F8A69817A8161157105C7
:103A900031F04D815E81CE01439619DF03C0CE0126
:103AA0004396F2DEBE01675E7F4FCE014396FEDE97
:103AB000BE01615E7F4FFADEEBE0833C9E0779F04A
:103AC000FC01608171816115710531F0448155817E
:103AD00083EC9BE0FCDE03C083EC9BE0D5DECE01F3
:103AE000439629DFCE01019626DFCE01499623DFDA
:103AF000CE014F9620DF14C08A5B9B40A9F48091D1
:103B0000BA0B811106C081E08093BA0B63E77BE0BA
:103B100004C01092BA0B62E87BE083EC9BE0F6DE17
:103B20001092C20B1092C10B81EC9BE0A4960FB6D1
:103B3000F894DEBF0FBECDBFDF91CF910895CF9235
:103B4000DF92EF92FF920F931F93CF93DF93CDB746
:103B5000DEB760970FB6F894DEBF0FBECDBF8B0106
:103B60001D861E861F86188AAE01435F5F4F39DDB2
:103B7000FC0120813181232B09F093C0CD84DE84A8
:103B8000EF84F888F8014485558566857785C416E5
:103B9000D506E606F70609F484C081E090E090932C
:103BA000C20B8093C10B6BED7AE083EC9BE0AEDE41
:103BB000B801605F7F4F83EC9BE052DE4D855E85F0
:103BC0006F85788920E1403151056105710530F438
:103BD000CE010796B5DE62EE7AE04DC04F3F51054B
:103BE0006105710509F030F4CE010796A9DE6BEE90
:103BF0007AE041C04115F0E15F076105710530F4DD
:103C0000CE0107969DDE63EF7AE035C04115510580
:103C100081E06807710530F4CE01079691DE6AEF06
:103C20007AE029C041155105E0E16E07710530F4D5
:103C3000CE01079685DE62ED7AE01DC04115510583
:103C40006105F1E07F0730F4CE01079679DE67ED7C
:103C50007AE011C041155105610580E1780730F423
:103C6000CE0107966DDE6FEC7AE005C0CE010796B7
:103C700067DE63E67BE0CE0101960E94B32FBE01B2
:103C8000695F7F4FCE01019611DEBC0183EC9BE0A2
:103C9000F5DDCE0101964FDECE0107964CDE81ECBC
:103CA0009BE060960FB6F894DEBF0FBECDBFDF91EC
:103CB000CF911F910F91FF90EF90DF90CF900895DB
:103CC0002F923F924F925F926F927F928F929F922C
:103CD000AF92BF92CF92DF92EF92FF920F931F931A
:103CE000CF93DF93CDB7DEB763970FB6F894DEBFFF
:103CF0000FBECDBF1C017B01DB01ED91FC91309724
:103D000041F0DC0114968D919C91159719959C01B9
:103D100002C029EC3BE0F901C080D180C114D1047C
:103D200009F090C1D1018D919C91DC01ED91FC9144
:103D3000D70112964D915D916D917C9115970480FC
:103D4000F581E02D2A8B3B8B1995182FF10180818D
:103D50009181DC01ED91FC91D70112964D915D911D
:103D60006D917C9115970680F781E02D19958F87CD
:103D700091E02A893B89123009F090E0412C512CC6
:103D800032014394E92FF0E0F98BE88BF70146818B
:103D9000578160857185D301C2010C2C04C0880F46
:103DA000991FAA1FBB1F0A94D2F784179507A6076D
:103DB000B70708F047C1888999898C0D9D1D53016B
:103DC000420104C0880C991CAA1CBB1C8A95D2F71E
:103DD000F70182819381A481B581880E991EAA1E64
:103DE000BB1E0284F385E02DC601880F991FE80FE2
:103DF000F91F008111811E861D86D1018D919C9134
:103E0000DC01ED91FC910084F185E02D9E01235FA2
:103E10003F4FB501A40119959C01FC01808191815E
:103E2000892B09F00FC1FF85F13009F07DC08D8528
:103E3000081709F401C181E090E09093C20B8093D0
:103E4000C10B6BED7AE083EC9BE060DDB701605F56
:103E50007F4F83EC9BE004DDC40140E1B40180317D
:103E6000910530F4CE01079697DD62ED7AE019C036
:103E70008F3F910509F030F4CE0107968DDD67ED97
:103E80007AE00FC0811420E1920630F4CE0107964B
:103E900083DD6FEC7AE005C0CE0107967DDD63E639
:103EA0007BE0CE0101960E94B32FBE01695F7F4F78
:103EB000CE010196FBDCBC0183EC9BE0DFDCCE0194
:103EC000019639DDCE01079636DD40E1602FCE0147
:103ED0000796003128F40E94862F6FEC7AE004C028
:103EE0000E94862F63E67BE0CE0101960E94B32FED
:103EF000BE01695F7F4FCE010196D8DCBC0183EC27
:103F00009BE0BCDCCE01019616DDCE01079613DDE9
:103F10006D8540E1CE010796603118F40E94862F2E
:103F20006CC00E94862F6FC04F85423009F088C058
:103F30008D859E850817190709F47EC081E090E001
:103F40009093C20B8093C10B6BED7AE083EC9BE006
:103F5000DDDCB701605F7F4F83EC9BE081DC40E1FB
:103F6000B801CE0107960031110520F415DD62ED90
:103F70007AE012C00F3F110509F020F40DDD67ED66
:103F80007AE00AC00115104120F406DD6FEC7AE0FA
:103F900003C002DD63E67BE0CE0101960E94B32FF1
:103FA000BE01695F7F4FCE01019680DCBC0183ECCE
:103FB0009BE064DCCE010196BEDCCE010796BBDC43
:103FC0006D857E8540E16031710530F4CE01079644
:103FD000E3DC62ED7AE019C06F3F710509F030F45F
:103FE000CE010796D9DC67ED7AE00FC0611580E15C
:103FF000780730F4CE010796CFDC6FEC7AE005C08D
:10400000CE010796C9DC63E67BE0CE0101960E94F3
:10401000B32FBE01695F7F4FCE01019647DCBC0123
:1040200083EC9BE02BDCCE01019685DCCE0107966C
:1040300082DC21EC3BE006C0AFEFCA1ADA0AA6CE5A
:1040400020E132E0C90163960FB6F894DEBF0FBEDF
:10405000CDBFDF91CF911F910F91FF90EF90DF9037
:10406000CF90BF90AF909F908F907F906F905F9018
:104070004F903F902F9008952F923F924F925F92D2
:104080006F927F928F929F92AF92BF92CF92DF9268
:10409000EF92FF920F931F93CF93DF93CDB7DEB7CD
:1040A00061970FB6F894DEBF0FBECDBF6C017B01E8
:1040B0008A01322EDB01ED91FC91309741F0DC0159
:1040C00018968D919C91199719959C0102C029EC25
:1040D0003BE0F90180819181892B09F096C1D601DD
:1040E0008D919C91DC01ED91FC91D70112964D913F
:1040F0005D916D917C9115970480F581E02D288B61
:10410000398B1995282EF60180819181DC01ED9182
:10411000FC91D70112964D915D916D917C9115970F
:104120000680F781E02D19958F87B801110F880B54
:10413000990B0E941B31F70182809380A480B58087
:10414000412C512C3201639428893989F7018681E9
:104150009781A085B18588159905AA05BB0508F446
:1041600054C10E94E93AA30192010E94663B8B016F
:10417000332011F0009510951E861D86F2E02F1257
:1041800007C02F85213021F480FE02C0012F1127A6
:10419000D6018D919C91DC01ED91FC910084F1851B
:1041A000E02D9E01235F3F4FB501A40119959C01AD
:1041B000FC0180819181892B09F027C1D7011B96D1
:1041C0004D915C911C97042315238D859E85842336
:1041D00095239E878D87BF85B13009F07CC0081775
:1041E00009F402C181E090E09093C20B8093C10B6F
:1041F0006BED7AE083EC9BE089DBB701635F7F4F77
:1042000083EC9BE02DDBC40140E1B40180319105DA
:1042100030F4CE010796C0DB62ED7AE019C08F3F23
:10422000910509F030F4CE010796B6DB67ED7AE030
:104230000FC08114E0E19E0630F4CE010796ACDB9E
:104240006FEC7AE005C0CE010796A6DB63E67BE063
:10425000CE0101960E94B32FBE01695F7F4FCE0150
:10426000019624DBBC0183EC9BE008DBCE010196C8
:1042700062DBCE0107965FDB40E1602FCE0107963F
:10428000003128F40E94862F6FEC7AE004C00E946F
:10429000862F63E67BE0CE0101960E94B32FBE011C
:1042A000695F7F4FCE01019601DBBC0183EC9BE08F
:1042B000E5DACE0101963FDBCE0107963CDB6D854A
:1042C00040E1CE010796603118F40E94862F6CC041
:1042D0000E94862F70C0FF85F23009F094C0081745
:1042E000190709F481C081E090E09093C20B80939C
:1042F000C10B6BED7AE083EC9BE008DBB701635FF9
:104300007F4F83EC9BE0ACDA40E1B801CE01079629
:104310000031110520F440DB62ED7AE012C00F3F5E
:10432000110509F020F438DB67ED7AE00AC00115C9
:10433000104120F431DB6FEC7AE003C02DDB63E643
:104340007BE0CE0101960E94B32FBE01695F7F4FD3
:10435000CE010196ABDABC0183EC9BE08FDACE0193
:104360000196E9DACE010796E6DA6D857E85603141
:10437000710538F440E1CE0107960EDB62ED7AE07C
:104380001CC06F3F710509F038F440E1CE0107967B
:1043900003DB67ED7AE011C0611540E1740738F482
:1043A00040E1CE010796F8DA6FEC7AE006C040E112
:1043B000CE010796F1DA63E67BE0CE0101960E941A
:1043C000B32FBE01695F7F4FCE0101966FDABC014A
:1043D00083EC9BE053DACE010196ADDACE0107966D
:1043E000AADA21EC3BE011C0D7011A968C91289EE5
:1043F000C0011124092E000CAA0BBB0B880E991EBC
:10440000AA1EBB1EA3CE20E132E0C90161960FB601
:10441000F894DEBF0FBECDBFDF91CF911F910F91FA
:10442000FF90EF90DF90CF90BF90AF909F908F90D4
:104430007F906F905F904F903F902F9008954F9294
:104440005F926F927F929F92AF92BF92CF92DF92D4
:10445000EF92FF920F931F93CF93DF931F921F92C0
:10446000CDB7DEB75C01DC015096CD90DC90519762
:1044700014960D911C91159799ECE92E9BE0F92E5D
:10448000F80186819781A085B185892B8A2B8B2B9A
:1044900009F45EC0D801ED91FC91309721F0C5017F
:1044A00019957C0104C089ECE82E8BE0F82EF70109
:1044B00080819181892B09F043C0D601ED91FC9157
:1044C000D80112964D915D916D917C911597048064
:1044D000F581E02DC6011995982EF8014280538090
:1044E00064807580F80186819781A085B1858415E7
:1044F0009505A605B70520F11A821982D601ED911E
:10450000FC910084F185E02D9E012F5F3F4FB301A8
:10451000A201C60119957C01FC0180819181892B42
:1045200079F4D8011A968C91989EC0011124092E15
:10453000000CAA0BBB0B480E591E6A1E7B1ED2CF65
:10454000085E1F4FD7018D919C91892B09F498CF5C
:10455000C7010F900F90DF91CF911F910F91FF90A6
:10456000EF90DF90CF90BF90AF909F907F906F9033
:104570005F904F9008952F923F924F925F926F926B
:104580007F928F929F92AF92BF92CF92DF92EF92E3
:10459000FF920F931F93CF93DF931F921F92CDB77C
:1045A000DEB76C01DC0150962D903C90519712962D
:1045B0000D911C91139799ECE92E9BE0F92EF801CF
:1045C00086819781A085B185892B8A2B8B2B09F455
:1045D00068C0D801ED91FC91309721F0C601199582
:1045E0007C0104C089ECE82E8BE0F82EF701808175
:1045F0009181892B09F04DC0D101ED91FC91D80139
:1046000012964D915D916D917C9115970480F58185
:10461000E02DC1011995F80182809380A480B580B6
:10462000482E512C612C712CD80116966D917D91DC
:104630008D919C911997A30192010E943738F8013E
:104640002281338144815581DC01CB01820F931F8C
:10465000A41FB51F88169906AA06BB06D0F41A82B5
:104660001982D101ED91FC910084F185E02D9E012C
:104670002F5F3F4FB501A401C10119957C01FC01D9
:1046800080819181892B29F4840C951CA61CB71C70
:10469000CBCF0C5E1F4FD7018D919C91892B09F4D4
:1046A0008ECFC7010F900F90DF91CF911F910F9187
:1046B000FF90EF90DF90CF90BF90AF909F908F9042
:1046C0007F906F905F904F903F902F900895BF9292
:1046D000CF92DF92EF92FF920F931F93CF93DF93CE
:1046E000CDB7DEB72E970FB6F894DEBF0FBECDBFA5
:1046F000DC015C962D913C915D971A968D919C9171
:104700001B976430710531F412161306C4F421505E
:10471000310911C06330710591F42F5F3F4F43E1C0
:10472000429FF001439FF00D1124E80FF91F4681CD
:104730005781452B21F05D963C932E935C975C96B8
:104740002D913C915D9743E1429F8001439F100D65
:104750001124080F191F5096CD90DC9051976130AD
:10476000710509F08FC0F8012081318121153105D3
:1047700029F0CD01F90119957C0104C039ECE32E33
:104780003BE0F32ED7018D919C91892B09F020C13C
:10479000D601ED91FC91D80112964D915D916D91EC
:1047A0007C9115970680F781E02DC6011995B82EEA
:1047B0001E861D86D601ED91FC91D80112964D9171
:1047C0005D916D917C9115970084F185E02D9E019E
:1047D000235F3F4FC60119957C016BEC7AE083ECB7
:1047E0009BE094D8B1E0BB120FC0F80166818D85C3
:1047F000682340E1CE010796603118F40E94862FAD
:1048000026C00E94862F27C0F2E0BF12D4C0D80174
:1048100016966D917C9117978D859E8568237923D7
:1048200040E1CE0107966031710520F4B5D862ED04
:104830007AE013C06F3F710509F020F4ADD867ED41
:104840007AE00BC06115B0E17B0720F4A5D86FECCE
:104850007AE003C0A1D863E67BE0CE0101960E9416
:10486000B32FBE01695F7F4FCE0101961FD8BC01F7
:1048700083EC9BE003D8CE0101965DD8CE0107966C
:104880005AD89DC0D601ED91FC91D80112964D9158
:104890005D916D917C9115970680F781E02DC601A1
:1048A0001995813019F51092C20B1092C10B64E674
:1048B0007BE083EC9BE02AD863E67BE083EC9BE023
:1048C0000E94301CB801685F7F4F83EC9BE00E9420
:1048D000301CF801668140E1CE010796603118F482
:1048E0000E94862F38C00E94862F39C0823009F07E
:1048F00062C01092C20B1092C10B64E67BE083ECA5
:104900009BE004D863E67BE083EC9BE00E94301CD4
:10491000B801685F7F4F83EC9BE00E94301CD80198
:1049200016966D917C91179740E1CE010796603104
:10493000710520F431D862ED7AE013C06F3F710544
:1049400009F020F429D867ED7AE00BC06115B0E1D9
:104950007B0720F421D86FEC7AE003C01DD863E612
:104960007BE0CE0101960E94B32FBE01695F7F4FAD
:10497000CE0101960E94561CBC0183EC9BE00E9474
:104980003E1CCE0101960E949B1CCE0107960E9400
:104990009B1C63E67BE083EC9BE00E94301CB8012B
:1049A000645F7F4F83EC9BE00E94301C29ECE22E79
:1049B0002BE0F22E04C090E1E92E92E0F92EF701EF
:1049C00080819181892B21F481ECE82E8BE0F82EF7
:1049D000C7012E960FB6F894DEBF0FBECDBFDF9194
:1049E000CF911F910F91FF90EF90DF90CF90BF90EC
:1049F00008952F923F924F925F926F927F928F9283
:104A00009F92AF92BF92CF92DF92EF92FF920F935D
:104A10001F93CF93DF93CDB7DEB7AC970FB6F89463
:104A2000DEBF0FBECDBFDC011496ED91FC91159752
:104A30000681178120853185012B022B032B09F478
:104A4000BAC13C016130710509F0ACC158968D9135
:104A50009C91599728E1289F8001299F100D1124CE
:104A60000E0F1F1F5096CD90DC90519788E0ECE61A
:104A7000F6E0DE01519601900D928A95E1F788E00B
:104A8000E4E7F6E0DE01199601900D928A95E1F7D0
:104A9000FE0131967F0188E0DF011D928A95E9F7DA
:104AA000D601ED91FC91D80112964D915D916D91D9
:104AB0007C9115970480F581E02DC6011995A82EEB
:104AC000D601ED91FC91D80112964D915D916D91B9
:104AD0007C9115970680F781E02DC6011995B82EB7
:104AE000F80183859485049740F0F1E04E01FB15B1
:104AF00048F021E1820E911C08C04E0139E0830E7E
:104B0000911C03C049E0840E911C6BEC7AE083ECAD
:104B10009BE00E94861CD801ED91FC91309721F01A
:104B2000C3011995FC0102C0E9ECFBE08081918191
:104B3000892B09F049C06B2D70E084E090E00E9461
:104B400046389B01770F440B550B2DA33EA34FA373
:104B500058A71401412C512C32012DA13EA14FA187
:104B600058A5421653066406750670F5D1018D905E
:104B70009D901D01F8018285D601ED91FC91A89EC2
:104B8000D0011124A30192010E948C3BD8011296FE
:104B90002D913D914D915C911597620F731F841F6C
:104BA000951F0284F385E02D9401AB01BC01C60181
:104BB0001995FC0180819181892B31F4BFEF4B1A4B
:104BC0005B0A6B0A7B0AC9CF80819181892B09F02E
:104BD000F4C031E0B31268C0412C512C32014701BE
:104BE000D8011A968C91D601ED91FC91A89ED00126
:104BF0001124A30192010E948C3BD80112962D91A1
:104C00003D914D915C911597620F731F841F951F05
:104C10000084F185E02D9701AB01BC01C601199517
:104C2000FC0180819181892B09F0C7C0B2E0EB0EB5
:104C3000F11CF4016081D8011B968C91682340E13E
:104C4000CE014996603128F40E94862F6FEC7AE0FD
:104C500004C00E94862F63E67BE0CE014F960E943F
:104C6000B32FBE01675E7F4FCE014F960E94561C48
:104C7000BC0183EC9BE00E943E1CCE014F960E943B
:104C80009B1CCE0149960E949B1CBFEF4B1A5B0AEE
:104C90006B0A7B0AE4E04E1651046104710409F0CA
:104CA0009ECFE1ECFBE089C0F2E0BF1284C0412C52
:104CB000512C32014701D8011A968C91D601ED9101
:104CC000FC91A89ED0011124A30192010E948C3B6B
:104CD000D80112962D913D914D915C911597620FDF
:104CE000731F841F951F0084F185E02D9701AB0190
:104CF000BC01C6011995FC0180819181892B09F0C5
:104D00005CC0B2E0EB0EF11CF40160817181D8014E
:104D10001B968D919C911C976823792340E1CE01CD
:104D200049966031710528F40E94CC1C62ED7AE04E
:104D300016C06F3F710509F028F40E94CC1C67ED86
:104D40007AE00DC06115B0E17B0728F40E94CC1C0D
:104D50006FEC7AE004C00E94CC1C63E67BE0CE01DD
:104D60004F960E94B32FBE01675E7F4FCE014F96D4
:104D70000E94561CBC0183EC9BE00E943E1CCE01AD
:104D80004F960E949B1CCE0149960E949B1C4A9400
:104D900045284628472809F484CF412C512C32015C
:104DA000439488CFDC01ED91FC9104A4F5A5E02D9E
:104DB0001995FC0102C0E0E1F2E0CF01AC960FB61C
:104DC000F894DEBF0FBECDBFDF91CF911F910F9141
:104DD000FF90EF90DF90CF90BF90AF909F908F901B
:104DE0007F906F905F904F903F902F900895CF935A
:104DF000DF93CDB7DEB72A970FB6F894DEBF0FBEAC
:104E0000CDBFFC0180859185268137814481558104
:104E1000608971897A8369835C834B833E832D83A8
:104E200098878F83FA87E9876FEFCE0101960E94FA
:104E30004E192A960FB6F894DEBF0FBECDBFDF9194
:104E4000CF910895CF93DF93CDB7DEB72A970FB6F2
:104E5000F894DEBF0FBECDBFFC0180859185268111
:104E6000378144815581608971897A8369835C8344
:104E70004B833E832D8398878F83FA87E98760E091
:104E8000CE0101960E944E192A960FB6F894DEBF05
:104E90000FBECDBFDF91CF910895CF92DF92EF92F9
:104EA000FF920F931F93CF93DF93CDB7DEB72A976F
:104EB0000FB6F894DEBF0FBECDBFFC018085918593
:104EC0002681378144815581608971897A8369831C
:104ED0005C834B833E832D8398878F83FA87E98792
:104EE00000E010E089EC9BE06B817C81600F711F1A
:104EF000FB01C680D780E084F184CD28CE28CF285E
:104F000059F0CE0101960E94DE18085E1F4FFC0189
:104F100020813181232B41F3FC0100811181011596
:104F20001105C1F46F817885600F711FFB01C68088
:104F3000D780E084F184CD28CE28CF2859F0CE0147
:104F400001960E94DE18085E1F4FFC01208131810E
:104F5000232B41F32A960FB6F894DEBF0FBECDBFC8
:104F6000DF91CF911F910F91FF90EF90DF90CF9045
:104F700008950F931F93CF93DF93CDB7DEB72A9792
:104F80000FB6F894DEBF0FBECDBFDC011696ED91D3
:104F9000FC9117970681178120853185012B022B03
:104FA000032B89F16130710539F55A968D919C91E9
:104FB0005B9728E1289FB001299F700D11246E0F87
:104FC0007F1F18968D919C91199714962D913C9165
:104FD000159750964D915C9151975A8349833C8324
:104FE0002B83FE83ED8398878F83BA87A987CE01B1
:104FF00001960E94C01309C0ED91FC9106A4F7A58B
:10500000E02D199502C080E192E02A960FB6F8943F
:10501000DEBF0FBECDBFDF91CF911F910F910895DD
:105020000F931F93CF93DF93CDB7DEB72A970FB6B9
:10503000F894DEBF0FBECDBFDC011496ED91FC915C
:1050400015970681178120853185012B022B032BB3
:1050500089F16130710539F558968D919C91599778
:1050600028E1289FB001299F700D11246E0F7F1F2A
:1050700018968D919C91199716962D913C911797A2
:1050800050964D915C9151975A834983FC83EB83F1
:105090003E832D8398878F83BA87A987CE01019697
:1050A0000E946E1809C0ED91FC9104A4F5A5E02DB5
:1050B000199502C080E192E02A960FB6F894DEBFFF
:1050C0000FBECDBFDF91CF911F910F910895DC01ED
:1050D0001E96ED91FC911F9720813181232BD1F0F9
:1050E0006130710581F491964D915C9192976DE0DC
:1050F000649F9001659F300D1124E20FF31F019012
:10510000F081E02D1994DC01ED91FC9100A8F1A94A
:10511000E02D199480E192E008950F931F93CF93AF
:10512000DF93CDB7DEB72C970FB6F894DEBF0FBE76
:10513000CDBFFC016430710539F4808D918D181656
:1051400019061CF501971AC063307105D1F4808DE2
:10515000918D019648E1489F9001499F300D11249F
:10516000A481B581A20FB31F16964D915D916D91EB
:105170007C911997452B462B472B39F0918F808FC7
:1051800004C06130710509F40EC1208D318D48E1F4
:10519000429FC001439F900D112404811581080F87
:1051A000191F80899189DC01ED91FC91D80112963B
:1051B0004D915D916D917C9115970680F781E02D61
:1051C0001995813009F057C01092C20B1092C10B93
:1051D00064E67BE083EC9BE00E94861CF801628120
:1051E000738140E1CE0107966031710528F40E9479
:1051F000CC1C62ED7AE016C06F3F710509F028F40F
:105200000E94CC1C67ED7AE00DC06115F0E17F07CC
:1052100028F40E94CC1C6FEC7AE004C00E94CC1CE5
:1052200063E67BE0CE0101969ED6BE01695F7F4FAB
:10523000CE0101960E94561CBC0183EC9BE00E94AB
:105240003E1CCE0101960E949B1CCE0107960E9437
:105250009B1C63E67BE083EC9BE00E94301CD80142
:105260001B966C9140E1CE010796603110F44ED64A
:105270006FC04CD672C0823009F098C01092C20B39
:105280001092C10B64E67BE083EC9BE00E94861CDD
:10529000F8016281738140E1CE01079660317105AA
:1052A00028F40E94CC1C62ED7AE016C06F3F7105B5
:1052B00009F028F40E94CC1C67ED7AE00DC061155E
:1052C000F0E17F0728F40E94CC1C6FEC7AE004C068
:1052D0000E94CC1C63E67BE0CE01019644D6BE0161
:1052E000695F7F4FCE0101960E94561CBC0183EC82
:1052F0009BE00E943E1CCE0101960E949B1CCE01A9
:1053000007960E949B1C63E67BE083EC9BE00E9477
:10531000301CD8011B966D917C911C9740E1CE0109
:1053200007966031710528F40E94CC1C62ED7AE08A
:1053300016C06F3F710509F028F40E94CC1C67ED80
:105340007AE00DC06115B0E17B0728F40E94CC1C07
:105350006FEC7AE004C00E94CC1C63E67BE0CE01D7
:10536000019601D6BE01695F7F4FCE0101960E9472
:10537000561CBC0183EC9BE00E943E1CCE010196B2
:105380000E949B1CCE0107960E949B1C63E67BE05B
:1053900083EC9BE00E94301CB801635F7F4F83EC7D
:1053A0009BE00E94301C89EC9BE002C080E192E00F
:1053B000FC0120813181232B11F481EC9BE02C96A0
:1053C0000FB6F894DEBF0FBECDBFDF91CF911F9116
:1053D0000F9108950F931F93CF93DF93CDB7DEB74F
:1053E0002C970FB6F894DEBF0FBECDBFFC01643022
:1053F000710539F486899789181619061CF50197E5
:105400001AC063307105D1F486899789019644E109
:10541000489F9001499F300D1124A281B381A20FB2
:10542000B31F16964D915D916D917C911997452B07
:10543000462B472B39F0978B868B04C06130710562
:1054400009F4EDC02689378944E1429FC001439F9A
:10545000900D112402811381080F191F80899189F1
:10546000DC01ED91FC91D80112964D915D916D9109
:105470007C9115970680F781E02D1995813009F010
:1054800051C01092C20B1092C10B64E67BE083EC1A
:105490009BE00E94861CF8016281738140E1CE018D
:1054A00007966031710528F40E94CC1C62ED7AE009
:1054B00016C06F3F710509F028F40E94CC1C67EDFF
:1054C0007AE00DC06115F0E17F0728F40E94CC1C42
:1054D0006FEC7AE004C00E94CC1C63E67BE0CE0156
:1054E000019641D5BE01695F7F4FCE0101960E94B2
:1054F000561CBC0183EC9BE00E943E1CCE01019631
:105500000E949B1CCE0107960E949B1C63E67BE0D9
:1055100083EC9BE00E94301C40E16FEFCE010796C8
:10552000F5D457C0823009F07DC01092C20B1092A2
:10553000C10B64E67BE083EC9BE00E94861CD801F3
:1055400012966D917C91139740E1CE0107966031E0
:10555000710528F40E94CC1C62ED7AE016C06F3F02
:10556000710509F028F40E94CC1C67ED7AE00DC0AB
:105570006115B0E17B0728F40E94CC1C6FEC7AE047
:1055800004C00E94CC1C63E67BE0CE010196EBD404
:10559000BE01695F7F4FCE0101960E94561CBC017F
:1055A00083EC9BE00E943E1CCE0101960E949B1C56
:1055B000CE0107960E949B1C63E67BE083EC9BE098
:1055C0000E94301C40E16FEF7FEFCE0107960E94F2
:1055D000CC1C63E67BE0CE010196C5D4BE01695FB9
:1055E0007F4FCE0101960E94561CBC0183EC9BE0CC
:1055F0000E943E1CCE0101960E949B1CCE01079684
:105600000E949B1C63E67BE083EC9BE00E94301CC5
:10561000B801605F7F4F83EC9BE00E94301C89ECF7
:105620009BE002C080E192E0FC0120813181232BCC
:1056300011F481EC9BE02C960FB6F894DEBF0FBE00
:10564000CDBFDF91CF911F910F9108959F92AF929F
:10565000BF92CF92DF92EF92FF920F931F93CF935F
:10566000DF93CDB7DEB764970FB6F894DEBF0FBEF9
:10567000CDBF6C017B01DC015E968D919C915F97A3
:105680001C962D913C911D976430710541F41816BC
:105690001906D4F40197F601978F868F15C06330F1
:1056A000710591F4019645E1489FF001499FF00D85
:1056B0001124E20FF31F46815781452B29F0D601B3
:1056C0005F969C938E935E97F601868D978D45E14C
:1056D000489F8001499F100D1124020F131F8089DC
:1056E0009189DC01ED91FC91D80112964D915D916B
:1056F0006D917C9115970680F781E02D1995EA94BC
:10570000EF2809F0CAC0F601848595852285338586
:10571000408951895A8349833C832B839E838D839F
:10572000D886CF82F0A0D801ED91FC91309729F076
:10573000CE01019619955C0104C059ECA52E5BE0E1
:10574000B52EF50180819181892B09F0A0C0898156
:105750009A81DC01ED91FC91D80112964D915D91F9
:105760006D917C9115970680F781E02D1995982E03
:10577000FF2071F062E97BE083EC9BE00E94861CD5
:10578000F801E680F78080859185E826F9260BC030
:1057900069E97BE083EC9BE00E94861CD8011896A7
:1057A000ED90FC90199789819A81DC01ED91FC9133
:1057B000D80112964D915D916D917C91159702845F
:1057C000F385E02D970119955C01B1E09B120BC0A8
:1057D000EFE040E16E2DCE010F96EE1510F096D35E
:1057E00028C094D32DC0F2E09F1244C040E1E416DB
:1057F000F10448F440E1B701CE010F960E94CC1CA1
:1058000062ED7AE01FC040E1B7018FEFE816F104C6
:1058100009F038F4CE010F960E94CC1C67ED7AE0B7
:1058200011C0E11490E1F90638F4CE010F960E9400
:10583000CC1C6FEC7AE006C0CE010F960E94CC1C07
:1058400063E67BE0CE0109968ED3BE01615F7F4F98
:10585000CE0109960E94561CBC0183EC9BE00E947D
:105860003E1CCE0109960E949B1CCE010F960E9401
:105870009B1C04C040E1A42E42E0B42ED5018D91C2
:105880009C91892B21F431ECA32E3BE0B32EF60141
:1058900090A181E0892780A399C0813019F51092E9
:1058A000C20B1092C10B64E67BE083EC9BE00E948C
:1058B000861C63E67BE083EC9BE00E94301CB80111
:1058C000665F7F4F83EC9BE00E94301CD8011696E8
:1058D0006C9140E1CE010996603110F417D339C0C4
:1058E00015D33CC0823009F064C01092C20B1092F4
:1058F000C10B64E67BE083EC9BE00E94861C63E6C0
:105900007BE083EC9BE00E94301CB801665F7F4F18
:1059100083EC9BE00E94301CF8016681778140E1B6
:10592000CE0109966031710528F40E94CC1C62ED0D
:105930007AE016C06F3F710509F028F40E94CC1C74
:1059400067ED7AE00DC06115F0E17F0728F40E9451
:10595000CC1C6FEC7AE004C00E94CC1C63E67BE0B8
:10596000CE01019600D3BE01675F7F4FCE01019645
:105970000E94561CBC0183EC9BE00E943E1CCE01A1
:1059800001960E949B1CCE0109960E949B1C63E617
:105990007BE083EC9BE00E94301CB801625F7F4F8C
:1059A00083EC9BE00E94301C29ECA22E2BE0B22E4F
:1059B00004C090E1A92E92E0B92ED5018D919C9161
:1059C000892B21F481ECA82E8BE0B82EC5016496BA
:1059D0000FB6F894DEBF0FBECDBFDF91CF911F9100
:1059E0000F91FF90EF90DF90CF90BF90AF909F907E
:1059F0000895CF92DF92EF92FF920F931F93CF9370
:105A0000DF936C017A018B01C0E0D0E0CE15DF0599
:105A100089F0D8016D918D01D601ED91FC91019035
:105A2000F081E02DC6011995892B11F47E0102C089
:105A30002196ECCFC701DF91CF911F910F91FF907D
:105A4000EF90DF90CF90089590E0FC013197E23124
:105A5000F10508F04EC08827EE58FF4F8F4F0C9489
:105A60005938809180008F7703C0809180008F7DAE
:105A700080938000089580918000877FF9CF84B55E
:105A80008F7702C084B58F7D84BD08958091B0006A
:105A90008F7703C08091B0008F7D8093B000089510
:105AA000809190008F7707C0809190008F7D03C018
:105AB00080919000877F8093900008958091A0004E
:105AC0008F7707C08091A0008F7D03C08091A000D8
:105AD000877F8093A0000895809120018F7707C071
